{
  "_format": "hh-sol-artifact-1",
  "contractName": "MyEpicGame",
  "sourceName": "contracts/MyEpicGame.sol",
  "abi": [
    {
      "inputs": [
        {
          "internalType": "string[]",
          "name": "characterNames",
          "type": "string[]"
        },
        {
          "internalType": "string[]",
          "name": "characterImageURIs",
          "type": "string[]"
        },
        {
          "internalType": "uint256[]",
          "name": "characterHp",
          "type": "uint256[]"
        },
        {
          "internalType": "uint256[]",
          "name": "characterAttackDmg",
          "type": "uint256[]"
        },
        {
          "internalType": "uint256[]",
          "name": "characterFishingLvl",
          "type": "uint256[]"
        },
        {
          "internalType": "uint256[]",
          "name": "characterWoodcuttingLvl",
          "type": "uint256[]"
        },
        {
          "internalType": "uint256[]",
          "name": "characterMiningLvl",
          "type": "uint256[]"
        },
        {
          "internalType": "uint256[]",
          "name": "characterSmithingLvl",
          "type": "uint256[]"
        }
      ],
      "stateMutability": "nonpayable",
      "type": "constructor"
    },
    {
      "anonymous": false,
      "inputs": [
        {
          "indexed": true,
          "internalType": "address",
          "name": "owner",
          "type": "address"
        },
        {
          "indexed": true,
          "internalType": "address",
          "name": "approved",
          "type": "address"
        },
        {
          "indexed": true,
          "internalType": "uint256",
          "name": "tokenId",
          "type": "uint256"
        }
      ],
      "name": "Approval",
      "type": "event"
    },
    {
      "anonymous": false,
      "inputs": [
        {
          "indexed": true,
          "internalType": "address",
          "name": "owner",
          "type": "address"
        },
        {
          "indexed": true,
          "internalType": "address",
          "name": "operator",
          "type": "address"
        },
        {
          "indexed": false,
          "internalType": "bool",
          "name": "approved",
          "type": "bool"
        }
      ],
      "name": "ApprovalForAll",
      "type": "event"
    },
    {
      "anonymous": false,
      "inputs": [
        {
          "indexed": false,
          "internalType": "address",
          "name": "sender",
          "type": "address"
        },
        {
          "indexed": false,
          "internalType": "uint256",
          "name": "tokenId",
          "type": "uint256"
        },
        {
          "indexed": false,
          "internalType": "uint256",
          "name": "characterIndex",
          "type": "uint256"
        }
      ],
      "name": "CharacterNFTMinted",
      "type": "event"
    },
    {
      "anonymous": false,
      "inputs": [
        {
          "indexed": false,
          "internalType": "uint256",
          "name": "oldFishingLvl",
          "type": "uint256"
        },
        {
          "indexed": false,
          "internalType": "uint256",
          "name": "newFishingLvl",
          "type": "uint256"
        }
      ],
      "name": "FishingLvlUp",
      "type": "event"
    },
    {
      "anonymous": false,
      "inputs": [
        {
          "indexed": false,
          "internalType": "uint256",
          "name": "oldMiningLvl",
          "type": "uint256"
        },
        {
          "indexed": false,
          "internalType": "uint256",
          "name": "newMiningLvl",
          "type": "uint256"
        }
      ],
      "name": "MiningLvlUp",
      "type": "event"
    },
    {
      "anonymous": false,
      "inputs": [
        {
          "indexed": false,
          "internalType": "uint256",
          "name": "oldSmithingLvl",
          "type": "uint256"
        },
        {
          "indexed": false,
          "internalType": "uint256",
          "name": "newSmithingLvl",
          "type": "uint256"
        }
      ],
      "name": "SmithingLvlUp",
      "type": "event"
    },
    {
      "anonymous": false,
      "inputs": [
        {
          "indexed": true,
          "internalType": "address",
          "name": "from",
          "type": "address"
        },
        {
          "indexed": true,
          "internalType": "address",
          "name": "to",
          "type": "address"
        },
        {
          "indexed": true,
          "internalType": "uint256",
          "name": "tokenId",
          "type": "uint256"
        }
      ],
      "name": "Transfer",
      "type": "event"
    },
    {
      "anonymous": false,
      "inputs": [
        {
          "indexed": false,
          "internalType": "uint256",
          "name": "oldWoodcuttingLvl",
          "type": "uint256"
        },
        {
          "indexed": false,
          "internalType": "uint256",
          "name": "newWoodcuttingLvl",
          "type": "uint256"
        }
      ],
      "name": "WoodCuttingLvlUp",
      "type": "event"
    },
    {
      "inputs": [
        {
          "internalType": "address",
          "name": "to",
          "type": "address"
        },
        {
          "internalType": "uint256",
          "name": "tokenId",
          "type": "uint256"
        }
      ],
      "name": "approve",
      "outputs": [],
      "stateMutability": "nonpayable",
      "type": "function"
    },
    {
      "inputs": [
        {
          "internalType": "address",
          "name": "owner",
          "type": "address"
        }
      ],
      "name": "balanceOf",
      "outputs": [
        {
          "internalType": "uint256",
          "name": "",
          "type": "uint256"
        }
      ],
      "stateMutability": "view",
      "type": "function"
    },
    {
      "inputs": [],
      "name": "checkIfUserHasNFT",
      "outputs": [
        {
          "components": [
            {
              "internalType": "uint256",
              "name": "characterIndex",
              "type": "uint256"
            },
            {
              "internalType": "string",
              "name": "name",
              "type": "string"
            },
            {
              "internalType": "string",
              "name": "imageURI",
              "type": "string"
            },
            {
              "internalType": "uint256",
              "name": "hp",
              "type": "uint256"
            },
            {
              "internalType": "uint256",
              "name": "maxHp",
              "type": "uint256"
            },
            {
              "internalType": "uint256",
              "name": "attackDamage",
              "type": "uint256"
            },
            {
              "internalType": "uint256",
              "name": "fishing",
              "type": "uint256"
            },
            {
              "internalType": "uint256",
              "name": "woodcutting",
              "type": "uint256"
            },
            {
              "internalType": "uint256",
              "name": "mining",
              "type": "uint256"
            },
            {
              "internalType": "uint256",
              "name": "smithing",
              "type": "uint256"
            }
          ],
          "internalType": "struct MyEpicGame.CharacterAttributes",
          "name": "",
          "type": "tuple"
        }
      ],
      "stateMutability": "view",
      "type": "function"
    },
    {
      "inputs": [],
      "name": "getAllDefaultCharacters",
      "outputs": [
        {
          "components": [
            {
              "internalType": "uint256",
              "name": "characterIndex",
              "type": "uint256"
            },
            {
              "internalType": "string",
              "name": "name",
              "type": "string"
            },
            {
              "internalType": "string",
              "name": "imageURI",
              "type": "string"
            },
            {
              "internalType": "uint256",
              "name": "hp",
              "type": "uint256"
            },
            {
              "internalType": "uint256",
              "name": "maxHp",
              "type": "uint256"
            },
            {
              "internalType": "uint256",
              "name": "attackDamage",
              "type": "uint256"
            },
            {
              "internalType": "uint256",
              "name": "fishing",
              "type": "uint256"
            },
            {
              "internalType": "uint256",
              "name": "woodcutting",
              "type": "uint256"
            },
            {
              "internalType": "uint256",
              "name": "mining",
              "type": "uint256"
            },
            {
              "internalType": "uint256",
              "name": "smithing",
              "type": "uint256"
            }
          ],
          "internalType": "struct MyEpicGame.CharacterAttributes[]",
          "name": "",
          "type": "tuple[]"
        }
      ],
      "stateMutability": "view",
      "type": "function"
    },
    {
      "inputs": [
        {
          "internalType": "uint256",
          "name": "tokenId",
          "type": "uint256"
        }
      ],
      "name": "getApproved",
      "outputs": [
        {
          "internalType": "address",
          "name": "",
          "type": "address"
        }
      ],
      "stateMutability": "view",
      "type": "function"
    },
    {
      "inputs": [
        {
          "internalType": "address",
          "name": "owner",
          "type": "address"
        },
        {
          "internalType": "address",
          "name": "operator",
          "type": "address"
        }
      ],
      "name": "isApprovedForAll",
      "outputs": [
        {
          "internalType": "bool",
          "name": "",
          "type": "bool"
        }
      ],
      "stateMutability": "view",
      "type": "function"
    },
    {
      "inputs": [
        {
          "internalType": "uint256",
          "name": "_characterIndex",
          "type": "uint256"
        }
      ],
      "name": "mintCharacterNFT",
      "outputs": [],
      "stateMutability": "nonpayable",
      "type": "function"
    },
    {
      "inputs": [],
      "name": "name",
      "outputs": [
        {
          "internalType": "string",
          "name": "",
          "type": "string"
        }
      ],
      "stateMutability": "view",
      "type": "function"
    },
    {
      "inputs": [
        {
          "internalType": "uint256",
          "name": "",
          "type": "uint256"
        }
      ],
      "name": "nftHolderAttributes",
      "outputs": [
        {
          "internalType": "uint256",
          "name": "characterIndex",
          "type": "uint256"
        },
        {
          "internalType": "string",
          "name": "name",
          "type": "string"
        },
        {
          "internalType": "string",
          "name": "imageURI",
          "type": "string"
        },
        {
          "internalType": "uint256",
          "name": "hp",
          "type": "uint256"
        },
        {
          "internalType": "uint256",
          "name": "maxHp",
          "type": "uint256"
        },
        {
          "internalType": "uint256",
          "name": "attackDamage",
          "type": "uint256"
        },
        {
          "internalType": "uint256",
          "name": "fishing",
          "type": "uint256"
        },
        {
          "internalType": "uint256",
          "name": "woodcutting",
          "type": "uint256"
        },
        {
          "internalType": "uint256",
          "name": "mining",
          "type": "uint256"
        },
        {
          "internalType": "uint256",
          "name": "smithing",
          "type": "uint256"
        }
      ],
      "stateMutability": "view",
      "type": "function"
    },
    {
      "inputs": [
        {
          "internalType": "address",
          "name": "",
          "type": "address"
        }
      ],
      "name": "nftHolders",
      "outputs": [
        {
          "internalType": "uint256",
          "name": "",
          "type": "uint256"
        }
      ],
      "stateMutability": "view",
      "type": "function"
    },
    {
      "inputs": [
        {
          "internalType": "uint256",
          "name": "tokenId",
          "type": "uint256"
        }
      ],
      "name": "ownerOf",
      "outputs": [
        {
          "internalType": "address",
          "name": "",
          "type": "address"
        }
      ],
      "stateMutability": "view",
      "type": "function"
    },
    {
      "inputs": [
        {
          "internalType": "address",
          "name": "from",
          "type": "address"
        },
        {
          "internalType": "address",
          "name": "to",
          "type": "address"
        },
        {
          "internalType": "uint256",
          "name": "tokenId",
          "type": "uint256"
        }
      ],
      "name": "safeTransferFrom",
      "outputs": [],
      "stateMutability": "nonpayable",
      "type": "function"
    },
    {
      "inputs": [
        {
          "internalType": "address",
          "name": "from",
          "type": "address"
        },
        {
          "internalType": "address",
          "name": "to",
          "type": "address"
        },
        {
          "internalType": "uint256",
          "name": "tokenId",
          "type": "uint256"
        },
        {
          "internalType": "bytes",
          "name": "_data",
          "type": "bytes"
        }
      ],
      "name": "safeTransferFrom",
      "outputs": [],
      "stateMutability": "nonpayable",
      "type": "function"
    },
    {
      "inputs": [
        {
          "internalType": "address",
          "name": "operator",
          "type": "address"
        },
        {
          "internalType": "bool",
          "name": "approved",
          "type": "bool"
        }
      ],
      "name": "setApprovalForAll",
      "outputs": [],
      "stateMutability": "nonpayable",
      "type": "function"
    },
    {
      "inputs": [
        {
          "internalType": "bytes4",
          "name": "interfaceId",
          "type": "bytes4"
        }
      ],
      "name": "supportsInterface",
      "outputs": [
        {
          "internalType": "bool",
          "name": "",
          "type": "bool"
        }
      ],
      "stateMutability": "view",
      "type": "function"
    },
    {
      "inputs": [],
      "name": "symbol",
      "outputs": [
        {
          "internalType": "string",
          "name": "",
          "type": "string"
        }
      ],
      "stateMutability": "view",
      "type": "function"
    },
    {
      "inputs": [
        {
          "internalType": "uint256",
          "name": "_tokenId",
          "type": "uint256"
        }
      ],
      "name": "tokenURI",
      "outputs": [
        {
          "internalType": "string",
          "name": "",
          "type": "string"
        }
      ],
      "stateMutability": "view",
      "type": "function"
    },
    {
      "inputs": [
        {
          "internalType": "address",
          "name": "from",
          "type": "address"
        },
        {
          "internalType": "address",
          "name": "to",
          "type": "address"
        },
        {
          "internalType": "uint256",
          "name": "tokenId",
          "type": "uint256"
        }
      ],
      "name": "transferFrom",
      "outputs": [],
      "stateMutability": "nonpayable",
      "type": "function"
    },
    {
      "inputs": [],
      "name": "tryFishing",
      "outputs": [],
      "stateMutability": "nonpayable",
      "type": "function"
    },
    {
      "inputs": [],
      "name": "tryMining",
      "outputs": [],
      "stateMutability": "nonpayable",
      "type": "function"
    },
    {
      "inputs": [],
      "name": "trySmithing",
      "outputs": [],
      "stateMutability": "nonpayable",
      "type": "function"
    },
    {
      "inputs": [],
      "name": "tryWoodcutting",
      "outputs": [],
      "stateMutability": "nonpayable",
      "type": "function"
    }
  ],
  "bytecode": "0x6080604052734b66dcebcf0fe08b591a5f01737076aedfe8be73600660006101000a81548173ffffffffffffffffffffffffffffffffffffffff021916908373ffffffffffffffffffffffffffffffffffffffff1602179055503480156200006657600080fd5b506040516200582e3803806200582e83398181016040528101906200008c919062000a61565b6040518060400160405280600681526020017f4865726f657300000000000000000000000000000000000000000000000000008152506040518060400160405280600481526020017f4845524f00000000000000000000000000000000000000000000000000000000815250816000908051906020019062000110929190620007c9565b50806001908051906020019062000129929190620007c9565b50505060005b8851811015620006b85760086040518061014001604052808381526020018b848151811062000187577f4e487b7100000000000000000000000000000000000000000000000000000000600052603260045260246000fd5b602002602001015181526020018a8481518110620001ce577f4e487b7100000000000000000000000000000000000000000000000000000000600052603260045260246000fd5b6020026020010151815260200189848151811062000215577f4e487b7100000000000000000000000000000000000000000000000000000000600052603260045260246000fd5b602002602001015181526020018984815181106200025c577f4e487b7100000000000000000000000000000000000000000000000000000000600052603260045260246000fd5b60200260200101518152602001888481518110620002a3577f4e487b7100000000000000000000000000000000000000000000000000000000600052603260045260246000fd5b60200260200101518152602001878481518110620002ea577f4e487b7100000000000000000000000000000000000000000000000000000000600052603260045260246000fd5b6020026020010151815260200186848151811062000331577f4e487b7100000000000000000000000000000000000000000000000000000000600052603260045260246000fd5b6020026020010151815260200185848151811062000378577f4e487b7100000000000000000000000000000000000000000000000000000000600052603260045260246000fd5b60200260200101518152602001848481518110620003bf577f4e487b7100000000000000000000000000000000000000000000000000000000600052603260045260246000fd5b602002602001015181525090806001815401808255809150506001900390600052602060002090600a02016000909190919091506000820151816000015560208201518160010190805190602001906200041b929190620007c9565b5060408201518160020190805190602001906200043a929190620007c9565b50606082015181600301556080820151816004015560a0820151816005015560c0820151816006015560e08201518160070155610100820151816008015561012082015181600901555050600060088281548110620004c2577f4e487b7100000000000000000000000000000000000000000000000000000000600052603260045260246000fd5b90600052602060002090600a02016040518061014001604052908160008201548152602001600182018054620004f89062000e16565b80601f0160208091040260200160405190810160405280929190818152602001828054620005269062000e16565b8015620005775780601f106200054b5761010080835404028352916020019162000577565b820191906000526020600020905b8154815290600101906020018083116200055957829003601f168201915b50505050508152602001600282018054620005929062000e16565b80601f0160208091040260200160405190810160405280929190818152602001828054620005c09062000e16565b8015620006115780601f10620005e55761010080835404028352916020019162000611565b820191906000526020600020905b815481529060010190602001808311620005f357829003601f168201915b505050505081526020016003820154815260200160048201548152602001600582015481526020016006820154815260200160078201548152602001600882015481526020016009820154815250509050620006a06040518060600160405280602581526020016200580960259139826020015183606001518460400151620006de60201b62001ce21760201c565b50600181620006b0919062000d79565b90506200012f565b50620006d060076200078a60201b62001d841760201c565b505050505050505062000f3a565b6200078484848484604051602401620006fb949392919062000c3e565b6040516020818303038152906040527f8d142cdd000000000000000000000000000000000000000000000000000000007bffffffffffffffffffffffffffffffffffffffffffffffffffffffff19166020820180517bffffffffffffffffffffffffffffffffffffffffffffffffffffffff8381831617835250505050620007a060201b60201c565b50505050565b6001816000016000828254019250508190555050565b60008151905060006a636f6e736f6c652e6c6f679050602083016000808483855afa5050505050565b828054620007d79062000e16565b90600052602060002090601f016020900481019282620007fb576000855562000847565b82601f106200081657805160ff191683800117855562000847565b8280016001018555821562000847579182015b828111156200084657825182559160200191906001019062000829565b5b5090506200085691906200085a565b5090565b5b80821115620008755760008160009055506001016200085b565b5090565b6000620008906200088a8462000cc9565b62000ca0565b90508083825260208201905082856020860282011115620008b057600080fd5b60005b85811015620008ff57815167ffffffffffffffff811115620008d457600080fd5b808601620008e3898262000a1d565b85526020850194506020840193505050600181019050620008b3565b5050509392505050565b6000620009206200091a8462000cf8565b62000ca0565b905080838252602082019050828560208602820111156200094057600080fd5b60005b8581101562000974578162000959888262000a4a565b84526020840193506020830192505060018101905062000943565b5050509392505050565b6000620009956200098f8462000d27565b62000ca0565b905082815260208101848484011115620009ae57600080fd5b620009bb84828562000de0565b509392505050565b600082601f830112620009d557600080fd5b8151620009e784826020860162000879565b91505092915050565b600082601f83011262000a0257600080fd5b815162000a1484826020860162000909565b91505092915050565b600082601f83011262000a2f57600080fd5b815162000a418482602086016200097e565b91505092915050565b60008151905062000a5b8162000f20565b92915050565b600080600080600080600080610100898b03121562000a7f57600080fd5b600089015167ffffffffffffffff81111562000a9a57600080fd5b62000aa88b828c01620009c3565b985050602089015167ffffffffffffffff81111562000ac657600080fd5b62000ad48b828c01620009c3565b975050604089015167ffffffffffffffff81111562000af257600080fd5b62000b008b828c01620009f0565b965050606089015167ffffffffffffffff81111562000b1e57600080fd5b62000b2c8b828c01620009f0565b955050608089015167ffffffffffffffff81111562000b4a57600080fd5b62000b588b828c01620009f0565b94505060a089015167ffffffffffffffff81111562000b7657600080fd5b62000b848b828c01620009f0565b93505060c089015167ffffffffffffffff81111562000ba257600080fd5b62000bb08b828c01620009f0565b92505060e089015167ffffffffffffffff81111562000bce57600080fd5b62000bdc8b828c01620009f0565b9150509295985092959890939650565b600062000bf98262000d5d565b62000c05818562000d68565b935062000c1781856020860162000de0565b62000c228162000f0f565b840191505092915050565b62000c388162000dd6565b82525050565b6000608082019050818103600083015262000c5a818762000bec565b9050818103602083015262000c70818662000bec565b905062000c81604083018562000c2d565b818103606083015262000c95818462000bec565b905095945050505050565b600062000cac62000cbf565b905062000cba828262000e4c565b919050565b6000604051905090565b600067ffffffffffffffff82111562000ce75762000ce662000ee0565b5b602082029050602081019050919050565b600067ffffffffffffffff82111562000d165762000d1562000ee0565b5b602082029050602081019050919050565b600067ffffffffffffffff82111562000d455762000d4462000ee0565b5b62000d508262000f0f565b9050602081019050919050565b600081519050919050565b600082825260208201905092915050565b600062000d868262000dd6565b915062000d938362000dd6565b9250827fffffffffffffffffffffffffffffffffffffffffffffffffffffffffffffffff0382111562000dcb5762000dca62000e82565b5b828201905092915050565b6000819050919050565b60005b8381101562000e0057808201518184015260208101905062000de3565b8381111562000e10576000848401525b50505050565b6000600282049050600182168062000e2f57607f821691505b6020821081141562000e465762000e4562000eb1565b5b50919050565b62000e578262000f0f565b810181811067ffffffffffffffff8211171562000e795762000e7862000ee0565b5b80604052505050565b7f4e487b7100000000000000000000000000000000000000000000000000000000600052601160045260246000fd5b7f4e487b7100000000000000000000000000000000000000000000000000000000600052602260045260246000fd5b7f4e487b7100000000000000000000000000000000000000000000000000000000600052604160045260246000fd5b6000601f19601f8301169050919050565b62000f2b8162000dd6565b811462000f3757600080fd5b50565b6148bf8062000f4a6000396000f3fe608060405234801561001057600080fd5b50600436106101425760003560e01c806398da4c95116100b8578063b953084e1161007c578063b953084e14610356578063c87b56dd14610374578063c8cf27f4146103a4578063e4282aa4146103c2578063e985e9c5146103cc578063f8b81ef7146103fc57610142565b806398da4c95146102d15780639f67975e1461030a578063a22cb46514610314578063a6c073f914610330578063b88d4fde1461033a57610142565b806342842e0e1161010a57806342842e0e146101fd57806351bc8577146102195780636352211e1461022357806370a08231146102535780637df124a11461028357806395d89b41146102b357610142565b806301ffc9a71461014757806306fdde0314610177578063081812fc14610195578063095ea7b3146101c557806323b872dd146101e1575b600080fd5b610161600480360381019061015c9190613005565b610418565b60405161016e9190613935565b60405180910390f35b61017f6104fa565b60405161018c9190613950565b60405180910390f35b6101af60048036038101906101aa9190613057565b61058c565b6040516101bc9190613875565b60405180910390f35b6101df60048036038101906101da9190612fc9565b610611565b005b6101fb60048036038101906101f69190612ec3565b610729565b005b61021760048036038101906102129190612ec3565b610789565b005b6102216107a9565b005b61023d60048036038101906102389190613057565b610906565b60405161024a9190613875565b60405180910390f35b61026d60048036038101906102689190612e5e565b6109b8565b60405161027a9190613bcc565b60405180910390f35b61029d60048036038101906102989190612e5e565b610a70565b6040516102aa9190613bcc565b60405180910390f35b6102bb610a88565b6040516102c89190613950565b60405180910390f35b6102eb60048036038101906102e69190613057565b610b1a565b6040516103019a99989796959493929190613be7565b60405180910390f35b610312610c7e565b005b61032e60048036038101906103299190612f8d565b610d4e565b005b610338610d64565b005b610354600480360381019061034f9190612f12565b610ec1565b005b61035e610f23565b60405161036b9190613913565b60405180910390f35b61038e60048036038101906103899190613057565b6110f7565b60405161039b9190613950565b60405180910390f35b6103ac61138d565b6040516103b99190613baa565b60405180910390f35b6103ca61158e565b005b6103e660048036038101906103e19190612e87565b6116eb565b6040516103f39190613935565b60405180910390f35b61041660048036038101906104119190613057565b61177f565b005b60007f80ac58cd000000000000000000000000000000000000000000000000000000007bffffffffffffffffffffffffffffffffffffffffffffffffffffffff1916827bffffffffffffffffffffffffffffffffffffffffffffffffffffffff191614806104e357507f5b5e139f000000000000000000000000000000000000000000000000000000007bffffffffffffffffffffffffffffffffffffffffffffffffffffffff1916827bffffffffffffffffffffffffffffffffffffffffffffffffffffffff1916145b806104f357506104f282611d9a565b5b9050919050565b60606000805461050990613f68565b80601f016020809104026020016040519081016040528092919081815260200182805461053590613f68565b80156105825780601f1061055757610100808354040283529160200191610582565b820191906000526020600020905b81548152906001019060200180831161056557829003601f168201915b5050505050905090565b600061059782611e04565b6105d6576040517f08c379a00000000000000000000000000000000000000000000000000000000081526004016105cd90613b4a565b60405180910390fd5b6004600083815260200190815260200160002060009054906101000a900473ffffffffffffffffffffffffffffffffffffffff169050919050565b600061061c82610906565b90508073ffffffffffffffffffffffffffffffffffffffff168373ffffffffffffffffffffffffffffffffffffffff16141561068d576040517f08c379a000000000000000000000000000000000000000000000000000000000815260040161068490613b6a565b60405180910390fd5b8073ffffffffffffffffffffffffffffffffffffffff166106ac611e70565b73ffffffffffffffffffffffffffffffffffffffff1614806106db57506106da816106d5611e70565b6116eb565b5b61071a576040517f08c379a000000000000000000000000000000000000000000000000000000000815260040161071190613aca565b60405180910390fd5b6107248383611e78565b505050565b61073a610734611e70565b82611f31565b610779576040517f08c379a000000000000000000000000000000000000000000000000000000000815260040161077090613b8a565b60405180910390fd5b61078483838361200f565b505050565b6107a483838360405180602001604052806000815250610ec1565b505050565b6000600a60003373ffffffffffffffffffffffffffffffffffffffff1673ffffffffffffffffffffffffffffffffffffffff1681526020019081526020016000205490506000600960008381526020019081526020016000209050600081600601549050600060018261081c9190613d9d565b9150819050600183600601546108329190613d9d565b8360060181905550600660009054906101000a900473ffffffffffffffffffffffffffffffffffffffff1673ffffffffffffffffffffffffffffffffffffffff1663f0233ab7336040518263ffffffff1660e01b81526004016108959190613875565b600060405180830381600087803b1580156108af57600080fd5b505af11580156108c3573d6000803e3d6000fd5b505050507fa5a824d47147923c73397ce00ca1da070e445ee175ba170a756ee237cf58d9a682826040516108f8929190613c91565b60405180910390a150505050565b6000806002600084815260200190815260200160002060009054906101000a900473ffffffffffffffffffffffffffffffffffffffff169050600073ffffffffffffffffffffffffffffffffffffffff168173ffffffffffffffffffffffffffffffffffffffff1614156109af576040517f08c379a00000000000000000000000000000000000000000000000000000000081526004016109a690613b0a565b60405180910390fd5b80915050919050565b60008073ffffffffffffffffffffffffffffffffffffffff168273ffffffffffffffffffffffffffffffffffffffff161415610a29576040517f08c379a0000000000000000000000000000000000000000000000000000000008152600401610a2090613aea565b60405180910390fd5b600360008373ffffffffffffffffffffffffffffffffffffffff1673ffffffffffffffffffffffffffffffffffffffff168152602001908152602001600020549050919050565b600a6020528060005260406000206000915090505481565b606060018054610a9790613f68565b80601f0160208091040260200160405190810160405280929190818152602001828054610ac390613f68565b8015610b105780601f10610ae557610100808354040283529160200191610b10565b820191906000526020600020905b815481529060010190602001808311610af357829003601f168201915b5050505050905090565b6009602052806000526040600020600091509050806000015490806001018054610b4390613f68565b80601f0160208091040260200160405190810160405280929190818152602001828054610b6f90613f68565b8015610bbc5780601f10610b9157610100808354040283529160200191610bbc565b820191906000526020600020905b815481529060010190602001808311610b9f57829003601f168201915b505050505090806002018054610bd190613f68565b80601f0160208091040260200160405190810160405280929190818152602001828054610bfd90613f68565b8015610c4a5780601f10610c1f57610100808354040283529160200191610c4a565b820191906000526020600020905b815481529060010190602001808311610c2d57829003601f168201915b505050505090806003015490806004015490806005015490806006015490806007015490806008015490806009015490508a565b6000600a60003373ffffffffffffffffffffffffffffffffffffffff1673ffffffffffffffffffffffffffffffffffffffff16815260200190815260200160002054905060006009600083815260200190815260200160002090506000816009015490506000600182610cf19190613d9d565b915081905060018360090154610d079190613d9d565b83600901819055507f7e787e12a5e781053b30b2b2e9ba10c4efa7aa7dba081d29a0332720ff5167708282604051610d40929190613c91565b60405180910390a150505050565b610d60610d59611e70565b8383612276565b5050565b6000600a60003373ffffffffffffffffffffffffffffffffffffffff1673ffffffffffffffffffffffffffffffffffffffff16815260200190815260200160002054905060006009600083815260200190815260200160002090506000816008015490506000600182610dd79190613d9d565b915081905060018360080154610ded9190613d9d565b8360080181905550600660009054906101000a900473ffffffffffffffffffffffffffffffffffffffff1673ffffffffffffffffffffffffffffffffffffffff1663fdca6f6e336040518263ffffffff1660e01b8152600401610e509190613875565b600060405180830381600087803b158015610e6a57600080fd5b505af1158015610e7e573d6000803e3d6000fd5b505050507f3fec5a178d6667f3aae4026a4efc8469fc775f77ed8e92b0a9ea5b1f18643ec98282604051610eb3929190613c91565b60405180910390a150505050565b610ed2610ecc611e70565b83611f31565b610f11576040517f08c379a0000000000000000000000000000000000000000000000000000000008152600401610f0890613b8a565b60405180910390fd5b610f1d848484846123e3565b50505050565b60606008805480602002602001604051908101604052809291908181526020016000905b828210156110ee57838290600052602060002090600a02016040518061014001604052908160008201548152602001600182018054610f8590613f68565b80601f0160208091040260200160405190810160405280929190818152602001828054610fb190613f68565b8015610ffe5780601f10610fd357610100808354040283529160200191610ffe565b820191906000526020600020905b815481529060010190602001808311610fe157829003601f168201915b5050505050815260200160028201805461101790613f68565b80601f016020809104026020016040519081016040528092919081815260200182805461104390613f68565b80156110905780601f1061106557610100808354040283529160200191611090565b820191906000526020600020905b81548152906001019060200180831161107357829003601f168201915b5050505050815260200160038201548152602001600482015481526020016005820154815260200160068201548152602001600782015481526020016008820154815260200160098201548152505081526020019060010190610f47565b50505050905090565b6060600060096000848152602001908152602001600020604051806101400160405290816000820154815260200160018201805461113490613f68565b80601f016020809104026020016040519081016040528092919081815260200182805461116090613f68565b80156111ad5780601f10611182576101008083540402835291602001916111ad565b820191906000526020600020905b81548152906001019060200180831161119057829003601f168201915b505050505081526020016002820180546111c690613f68565b80601f01602080910402602001604051908101604052809291908181526020018280546111f290613f68565b801561123f5780601f106112145761010080835404028352916020019161123f565b820191906000526020600020905b81548152906001019060200180831161122257829003601f168201915b505050505081526020016003820154815260200160048201548152602001600582015481526020016006820154815260200160078201548152602001600882015481526020016009820154815250509050600061129f826060015161243f565b905060006112b0836080015161243f565b905060006112c18460a0015161243f565b905060006112d28560c0015161243f565b905060006112e38660e0015161243f565b905060006112f587610100015161243f565b9050600061130788610120015161243f565b90506000611355896020015161131c8d61243f565b8b604001518b8b8b8b8b8b8b6040516020016113419a9998979695949392919061374e565b6040516020818303038152906040526125ec565b905060008160405160200161136a9190613853565b6040516020818303038152906040529050809a5050505050505050505050919050565b611395612c97565b6000600a60003373ffffffffffffffffffffffffffffffffffffffff1673ffffffffffffffffffffffffffffffffffffffff168152602001908152602001600020549050600081111561157d5760096000828152602001908152602001600020604051806101400160405290816000820154815260200160018201805461141b90613f68565b80601f016020809104026020016040519081016040528092919081815260200182805461144790613f68565b80156114945780601f1061146957610100808354040283529160200191611494565b820191906000526020600020905b81548152906001019060200180831161147757829003601f168201915b505050505081526020016002820180546114ad90613f68565b80601f01602080910402602001604051908101604052809291908181526020018280546114d990613f68565b80156115265780601f106114fb57610100808354040283529160200191611526565b820191906000526020600020905b81548152906001019060200180831161150957829003601f168201915b5050505050815260200160038201548152602001600482015481526020016005820154815260200160068201548152602001600782015481526020016008820154815260200160098201548152505091505061158b565b611585612c97565b80925050505b90565b6000600a60003373ffffffffffffffffffffffffffffffffffffffff1673ffffffffffffffffffffffffffffffffffffffff168152602001908152602001600020549050600060096000838152602001908152602001600020905060008160070154905060006001826116019190613d9d565b9150819050600183600701546116179190613d9d565b8360070181905550600660009054906101000a900473ffffffffffffffffffffffffffffffffffffffff1673ffffffffffffffffffffffffffffffffffffffff1663cd3c3991336040518263ffffffff1660e01b815260040161167a9190613875565b600060405180830381600087803b15801561169457600080fd5b505af11580156116a8573d6000803e3d6000fd5b505050507fec2e806e0a401b7ea10523024997e4627947b7d70fd8bf49bbff34465b313c4582826040516116dd929190613c91565b60405180910390a150505050565b6000600560008473ffffffffffffffffffffffffffffffffffffffff1673ffffffffffffffffffffffffffffffffffffffff16815260200190815260200160002060008373ffffffffffffffffffffffffffffffffffffffff1673ffffffffffffffffffffffffffffffffffffffff16815260200190815260200160002060009054906101000a900460ff16905092915050565b600061178b60076127aa565b905061179733826127b8565b604051806101400160405280838152602001600884815481106117e3577f4e487b7100000000000000000000000000000000000000000000000000000000600052603260045260246000fd5b90600052602060002090600a020160010180546117ff90613f68565b80601f016020809104026020016040519081016040528092919081815260200182805461182b90613f68565b80156118785780601f1061184d57610100808354040283529160200191611878565b820191906000526020600020905b81548152906001019060200180831161185b57829003601f168201915b50505050508152602001600884815481106118bc577f4e487b7100000000000000000000000000000000000000000000000000000000600052603260045260246000fd5b90600052602060002090600a020160020180546118d890613f68565b80601f016020809104026020016040519081016040528092919081815260200182805461190490613f68565b80156119515780601f1061192657610100808354040283529160200191611951565b820191906000526020600020905b81548152906001019060200180831161193457829003601f168201915b5050505050815260200160088481548110611995577f4e487b7100000000000000000000000000000000000000000000000000000000600052603260045260246000fd5b90600052602060002090600a0201600301548152602001600884815481106119e6577f4e487b7100000000000000000000000000000000000000000000000000000000600052603260045260246000fd5b90600052602060002090600a020160030154815260200160088481548110611a37577f4e487b7100000000000000000000000000000000000000000000000000000000600052603260045260246000fd5b90600052602060002090600a020160050154815260200160088481548110611a88577f4e487b7100000000000000000000000000000000000000000000000000000000600052603260045260246000fd5b90600052602060002090600a020160060154815260200160088481548110611ad9577f4e487b7100000000000000000000000000000000000000000000000000000000600052603260045260246000fd5b90600052602060002090600a020160070154815260200160088481548110611b2a577f4e487b7100000000000000000000000000000000000000000000000000000000600052603260045260246000fd5b90600052602060002090600a020160080154815260200160088481548110611b7b577f4e487b7100000000000000000000000000000000000000000000000000000000600052603260045260246000fd5b90600052602060002090600a02016009015481525060096000838152602001908152602001600020600082015181600001556020820151816001019080519060200190611bc9929190612cea565b506040820151816002019080519060200190611be6929190612cea565b50606082015181600301556080820151816004015560a0820151816005015560c0820151816006015560e0820151816007015561010082015181600801556101208201518160090155905050611c556040518060600160405280602e815260200161485c602e913982846127d6565b80600a60003373ffffffffffffffffffffffffffffffffffffffff1673ffffffffffffffffffffffffffffffffffffffff16815260200190815260200160002081905550611ca36007611d84565b7f4bc303fd457a97b4691b9af582ce71868a3d258638c8d4f8c60988a0f0bfb8cd338284604051611cd6939291906138dc565b60405180910390a15050565b611d7e84848484604051602401611cfc9493929190613972565b6040516020818303038152906040527f8d142cdd000000000000000000000000000000000000000000000000000000007bffffffffffffffffffffffffffffffffffffffffffffffffffffffff19166020820180517bffffffffffffffffffffffffffffffffffffffffffffffffffffffff8381831617835250505050612875565b50505050565b6001816000016000828254019250508190555050565b60007f01ffc9a7000000000000000000000000000000000000000000000000000000007bffffffffffffffffffffffffffffffffffffffffffffffffffffffff1916827bffffffffffffffffffffffffffffffffffffffffffffffffffffffff1916149050919050565b60008073ffffffffffffffffffffffffffffffffffffffff166002600084815260200190815260200160002060009054906101000a900473ffffffffffffffffffffffffffffffffffffffff1673ffffffffffffffffffffffffffffffffffffffff1614159050919050565b600033905090565b816004600083815260200190815260200160002060006101000a81548173ffffffffffffffffffffffffffffffffffffffff021916908373ffffffffffffffffffffffffffffffffffffffff160217905550808273ffffffffffffffffffffffffffffffffffffffff16611eeb83610906565b73ffffffffffffffffffffffffffffffffffffffff167f8c5be1e5ebec7d5bd14f71427d1e84f3dd0314c0f7b2291e5b200ac8c7c3b92560405160405180910390a45050565b6000611f3c82611e04565b611f7b576040517f08c379a0000000000000000000000000000000000000000000000000000000008152600401611f7290613aaa565b60405180910390fd5b6000611f8683610906565b90508073ffffffffffffffffffffffffffffffffffffffff168473ffffffffffffffffffffffffffffffffffffffff161480611fc85750611fc781856116eb565b5b8061200657508373ffffffffffffffffffffffffffffffffffffffff16611fee8461058c565b73ffffffffffffffffffffffffffffffffffffffff16145b91505092915050565b8273ffffffffffffffffffffffffffffffffffffffff1661202f82610906565b73ffffffffffffffffffffffffffffffffffffffff1614612085576040517f08c379a000000000000000000000000000000000000000000000000000000000815260040161207c90613a2a565b60405180910390fd5b600073ffffffffffffffffffffffffffffffffffffffff168273ffffffffffffffffffffffffffffffffffffffff1614156120f5576040517f08c379a00000000000000000000000000000000000000000000000000000000081526004016120ec90613a6a565b60405180910390fd5b61210083838361289e565b61210b600082611e78565b6001600360008573ffffffffffffffffffffffffffffffffffffffff1673ffffffffffffffffffffffffffffffffffffffff168152602001908152602001600020600082825461215b9190613e7e565b925050819055506001600360008473ffffffffffffffffffffffffffffffffffffffff1673ffffffffffffffffffffffffffffffffffffffff16815260200190815260200160002060008282546121b29190613d9d565b92505081905550816002600083815260200190815260200160002060006101000a81548173ffffffffffffffffffffffffffffffffffffffff021916908373ffffffffffffffffffffffffffffffffffffffff160217905550808273ffffffffffffffffffffffffffffffffffffffff168473ffffffffffffffffffffffffffffffffffffffff167fddf252ad1be2c89b69c2b068fc378daa952ba7f163c4a11628f55a4df523b3ef60405160405180910390a46122718383836128a3565b505050565b8173ffffffffffffffffffffffffffffffffffffffff168373ffffffffffffffffffffffffffffffffffffffff1614156122e5576040517f08c379a00000000000000000000000000000000000000000000000000000000081526004016122dc90613a8a565b60405180910390fd5b80600560008573ffffffffffffffffffffffffffffffffffffffff1673ffffffffffffffffffffffffffffffffffffffff16815260200190815260200160002060008473ffffffffffffffffffffffffffffffffffffffff1673ffffffffffffffffffffffffffffffffffffffff16815260200190815260200160002060006101000a81548160ff0219169083151502179055508173ffffffffffffffffffffffffffffffffffffffff168373ffffffffffffffffffffffffffffffffffffffff167f17307eab39ab6107e8899845ad3d59bd9653f200f220920489ca2b5937696c31836040516123d69190613935565b60405180910390a3505050565b6123ee84848461200f565b6123fa848484846128a8565b612439576040517f08c379a000000000000000000000000000000000000000000000000000000000815260040161243090613a0a565b60405180910390fd5b50505050565b60606000821415612487576040518060400160405280600181526020017f300000000000000000000000000000000000000000000000000000000000000081525090506125e7565b600082905060005b600082146124b95780806124a290613fcb565b915050600a826124b29190613df3565b915061248f565b60008167ffffffffffffffff8111156124fb577f4e487b7100000000000000000000000000000000000000000000000000000000600052604160045260246000fd5b6040519080825280601f01601f19166020018201604052801561252d5781602001600182028036833780820191505090505b5090505b600085146125e0576001826125469190613e7e565b9150600a856125559190614014565b60306125619190613d9d565b60f81b81838151811061259d577f4e487b7100000000000000000000000000000000000000000000000000000000600052603260045260246000fd5b60200101907effffffffffffffffffffffffffffffffffffffffffffffffffffffffffffff1916908160001a905350600a856125d99190613df3565b9450612531565b8093505050505b919050565b6060600082519050600081141561261557604051806020016040528060008152509150506127a5565b600060036002836126269190613d9d565b6126309190613df3565b600461263c9190613e24565b9050600060208261264d9190613d9d565b67ffffffffffffffff81111561268c577f4e487b7100000000000000000000000000000000000000000000000000000000600052604160045260246000fd5b6040519080825280601f01601f1916602001820160405280156126be5781602001600182028036833780820191505090505b509050600060405180606001604052806040815260200161481c604091399050600181016020830160005b868110156127625760038101905062ffffff818a015116603f8160121c168401518060081b905060ff603f83600c1c1686015116810190508060081b905060ff603f8360061c1686015116810190508060081b905060ff603f831686015116810190508060e01b905080845260048401935050506126e9565b50600386066001811461277c576002811461278c57612797565b613d3d60f01b6002830352612797565b603d60f81b60018303525b508484525050819450505050505b919050565b600081600001549050919050565b6127d2828260405180602001604052806000815250612a3f565b5050565b6128708383836040516024016127ee939291906139cc565b6040516020818303038152906040527f969cdd03000000000000000000000000000000000000000000000000000000007bffffffffffffffffffffffffffffffffffffffffffffffffffffffff19166020820180517bffffffffffffffffffffffffffffffffffffffffffffffffffffffff8381831617835250505050612875565b505050565b60008151905060006a636f6e736f6c652e6c6f679050602083016000808483855afa5050505050565b505050565b505050565b60006128c98473ffffffffffffffffffffffffffffffffffffffff16612a9a565b15612a32578373ffffffffffffffffffffffffffffffffffffffff1663150b7a026128f2611e70565b8786866040518563ffffffff1660e01b81526004016129149493929190613890565b602060405180830381600087803b15801561292e57600080fd5b505af192505050801561295f57506040513d601f19601f8201168201806040525081019061295c919061302e565b60015b6129e2573d806000811461298f576040519150601f19603f3d011682016040523d82523d6000602084013e612994565b606091505b506000815114156129da576040517f08c379a00000000000000000000000000000000000000000000000000000000081526004016129d190613a0a565b60405180910390fd5b805181602001fd5b63150b7a0260e01b7bffffffffffffffffffffffffffffffffffffffffffffffffffffffff1916817bffffffffffffffffffffffffffffffffffffffffffffffffffffffff191614915050612a37565b600190505b949350505050565b612a498383612abd565b612a5660008484846128a8565b612a95576040517f08c379a0000000000000000000000000000000000000000000000000000000008152600401612a8c90613a0a565b60405180910390fd5b505050565b6000808273ffffffffffffffffffffffffffffffffffffffff163b119050919050565b600073ffffffffffffffffffffffffffffffffffffffff168273ffffffffffffffffffffffffffffffffffffffff161415612b2d576040517f08c379a0000000000000000000000000000000000000000000000000000000008152600401612b2490613b2a565b60405180910390fd5b612b3681611e04565b15612b76576040517f08c379a0000000000000000000000000000000000000000000000000000000008152600401612b6d90613a4a565b60405180910390fd5b612b826000838361289e565b6001600360008473ffffffffffffffffffffffffffffffffffffffff1673ffffffffffffffffffffffffffffffffffffffff1681526020019081526020016000206000828254612bd29190613d9d565b92505081905550816002600083815260200190815260200160002060006101000a81548173ffffffffffffffffffffffffffffffffffffffff021916908373ffffffffffffffffffffffffffffffffffffffff160217905550808273ffffffffffffffffffffffffffffffffffffffff16600073ffffffffffffffffffffffffffffffffffffffff167fddf252ad1be2c89b69c2b068fc378daa952ba7f163c4a11628f55a4df523b3ef60405160405180910390a4612c93600083836128a3565b5050565b604051806101400160405280600081526020016060815260200160608152602001600081526020016000815260200160008152602001600081526020016000815260200160008152602001600081525090565b828054612cf690613f68565b90600052602060002090601f016020900481019282612d185760008555612d5f565b82601f10612d3157805160ff1916838001178555612d5f565b82800160010185558215612d5f579182015b82811115612d5e578251825591602001919060010190612d43565b5b509050612d6c9190612d70565b5090565b5b80821115612d89576000816000905550600101612d71565b5090565b6000612da0612d9b84613cdf565b613cba565b905082815260208101848484011115612db857600080fd5b612dc3848285613f26565b509392505050565b600081359050612dda816147bf565b92915050565b600081359050612def816147d6565b92915050565b600081359050612e04816147ed565b92915050565b600081519050612e19816147ed565b92915050565b600082601f830112612e3057600080fd5b8135612e40848260208601612d8d565b91505092915050565b600081359050612e5881614804565b92915050565b600060208284031215612e7057600080fd5b6000612e7e84828501612dcb565b91505092915050565b60008060408385031215612e9a57600080fd5b6000612ea885828601612dcb565b9250506020612eb985828601612dcb565b9150509250929050565b600080600060608486031215612ed857600080fd5b6000612ee686828701612dcb565b9350506020612ef786828701612dcb565b9250506040612f0886828701612e49565b9150509250925092565b60008060008060808587031215612f2857600080fd5b6000612f3687828801612dcb565b9450506020612f4787828801612dcb565b9350506040612f5887828801612e49565b925050606085013567ffffffffffffffff811115612f7557600080fd5b612f8187828801612e1f565b91505092959194509250565b60008060408385031215612fa057600080fd5b6000612fae85828601612dcb565b9250506020612fbf85828601612de0565b9150509250929050565b60008060408385031215612fdc57600080fd5b6000612fea85828601612dcb565b9250506020612ffb85828601612e49565b9150509250929050565b60006020828403121561301757600080fd5b600061302584828501612df5565b91505092915050565b60006020828403121561304057600080fd5b600061304e84828501612e0a565b91505092915050565b60006020828403121561306957600080fd5b600061307784828501612e49565b91505092915050565b600061308c838361356e565b905092915050565b61309d81613eb2565b82525050565b60006130ae82613d20565b6130b88185613d4e565b9350836020820285016130ca85613d10565b8060005b8581101561310657848403895281516130e78582613080565b94506130f283613d41565b925060208a019950506001810190506130ce565b50829750879550505050505092915050565b61312181613ec4565b82525050565b600061313282613d2b565b61313c8185613d5f565b935061314c818560208601613f35565b61315581614101565b840191505092915050565b600061316b82613d36565b6131758185613d70565b9350613185818560208601613f35565b61318e81614101565b840191505092915050565b60006131a482613d36565b6131ae8185613d81565b93506131be818560208601613f35565b6131c781614101565b840191505092915050565b60006131dd82613d36565b6131e78185613d92565b93506131f7818560208601613f35565b80840191505092915050565b6000613210600b83613d92565b915061321b82614112565b600b82019050919050565b6000613233603283613d81565b915061323e8261413b565b604082019050919050565b6000613256602583613d81565b91506132618261418a565b604082019050919050565b6000613279602e83613d92565b9150613284826141d9565b602e82019050919050565b600061329c601c83613d81565b91506132a782614228565b602082019050919050565b60006132bf600e83613d92565b91506132ca82614251565b600e82019050919050565b60006132e2602483613d81565b91506132ed8261427a565b604082019050919050565b6000613305601983613d81565b9150613310826142c9565b602082019050919050565b6000613328602d83613d92565b9150613333826142f2565b602d82019050919050565b600061334b602c83613d81565b915061335682614341565b604082019050919050565b600061336e603883613d81565b915061337982614390565b604082019050919050565b6000613391602a83613d81565b915061339c826143df565b604082019050919050565b60006133b4602983613d81565b91506133bf8261442e565b604082019050919050565b60006133d7602083613d81565b91506133e28261447d565b602082019050919050565b60006133fa600383613d92565b9150613405826144a6565b600382019050919050565b600061341d602c83613d81565b9150613428826144cf565b604082019050919050565b6000613440602c83613d92565b915061344b8261451e565b602c82019050919050565b6000613463600a83613d92565b915061346e8261456d565b600a82019050919050565b6000613486603183613d92565b915061349182614596565b603182019050919050565b60006134a9602183613d81565b91506134b4826145e5565b604082019050919050565b60006134cc601d83613d92565b91506134d782614634565b601d82019050919050565b60006134ef605983613d92565b91506134fa8261465d565b605982019050919050565b6000613512603183613d81565b915061351d826146d2565b604082019050919050565b6000613535603d83613d92565b915061354082614721565b603d82019050919050565b6000613558602d83613d92565b915061356382614770565b602d82019050919050565b6000610140830160008301516135876000860182613730565b506020830151848203602086015261359f8282613160565b915050604083015184820360408601526135b98282613160565b91505060608301516135ce6060860182613730565b5060808301516135e16080860182613730565b5060a08301516135f460a0860182613730565b5060c083015161360760c0860182613730565b5060e083015161361a60e0860182613730565b5061010083015161362f610100860182613730565b50610120830151613644610120860182613730565b508091505092915050565b6000610140830160008301516136686000860182613730565b50602083015184820360208601526136808282613160565b9150506040830151848203604086015261369a8282613160565b91505060608301516136af6060860182613730565b5060808301516136c26080860182613730565b5060a08301516136d560a0860182613730565b5060c08301516136e860c0860182613730565b5060e08301516136fb60e0860182613730565b50610100830151613710610100860182613730565b50610120830151613725610120860182613730565b508091505092915050565b61373981613f1c565b82525050565b61374881613f1c565b82525050565b600061375982613456565b9150613765828d6131d2565b915061377082613203565b915061377c828c6131d2565b9150613787826134e2565b9150613793828b6131d2565b915061379e82613528565b91506137aa828a6131d2565b91506137b5826132b2565b91506137c182896131d2565b91506137cc8261354b565b91506137d882886131d2565b91506137e38261331b565b91506137ef82876131d2565b91506137fa82613479565b915061380682866131d2565b915061381182613433565b915061381d82856131d2565b91506138288261326c565b915061383482846131d2565b915061383f826133ed565b91508190509b9a5050505050505050505050565b600061385e826134bf565b915061386a82846131d2565b915081905092915050565b600060208201905061388a6000830184613094565b92915050565b60006080820190506138a56000830187613094565b6138b26020830186613094565b6138bf604083018561373f565b81810360608301526138d18184613127565b905095945050505050565b60006060820190506138f16000830186613094565b6138fe602083018561373f565b61390b604083018461373f565b949350505050565b6000602082019050818103600083015261392d81846130a3565b905092915050565b600060208201905061394a6000830184613118565b92915050565b6000602082019050818103600083015261396a8184613199565b905092915050565b6000608082019050818103600083015261398c8187613199565b905081810360208301526139a08186613199565b90506139af604083018561373f565b81810360608301526139c18184613199565b905095945050505050565b600060608201905081810360008301526139e68186613199565b90506139f5602083018561373f565b613a02604083018461373f565b949350505050565b60006020820190508181036000830152613a2381613226565b9050919050565b60006020820190508181036000830152613a4381613249565b9050919050565b60006020820190508181036000830152613a638161328f565b9050919050565b60006020820190508181036000830152613a83816132d5565b9050919050565b60006020820190508181036000830152613aa3816132f8565b9050919050565b60006020820190508181036000830152613ac38161333e565b9050919050565b60006020820190508181036000830152613ae381613361565b9050919050565b60006020820190508181036000830152613b0381613384565b9050919050565b60006020820190508181036000830152613b23816133a7565b9050919050565b60006020820190508181036000830152613b43816133ca565b9050919050565b60006020820190508181036000830152613b6381613410565b9050919050565b60006020820190508181036000830152613b838161349c565b9050919050565b60006020820190508181036000830152613ba381613505565b9050919050565b60006020820190508181036000830152613bc4818461364f565b905092915050565b6000602082019050613be1600083018461373f565b92915050565b600061014082019050613bfd600083018d61373f565b8181036020830152613c0f818c613199565b90508181036040830152613c23818b613199565b9050613c32606083018a61373f565b613c3f608083018961373f565b613c4c60a083018861373f565b613c5960c083018761373f565b613c6660e083018661373f565b613c7461010083018561373f565b613c8261012083018461373f565b9b9a5050505050505050505050565b6000604082019050613ca6600083018561373f565b613cb3602083018461373f565b9392505050565b6000613cc4613cd5565b9050613cd08282613f9a565b919050565b6000604051905090565b600067ffffffffffffffff821115613cfa57613cf96140d2565b5b613d0382614101565b9050602081019050919050565b6000819050602082019050919050565b600081519050919050565b600081519050919050565b600081519050919050565b6000602082019050919050565b600082825260208201905092915050565b600082825260208201905092915050565b600082825260208201905092915050565b600082825260208201905092915050565b600081905092915050565b6000613da882613f1c565b9150613db383613f1c565b9250827fffffffffffffffffffffffffffffffffffffffffffffffffffffffffffffffff03821115613de857613de7614045565b5b828201905092915050565b6000613dfe82613f1c565b9150613e0983613f1c565b925082613e1957613e18614074565b5b828204905092915050565b6000613e2f82613f1c565b9150613e3a83613f1c565b9250817fffffffffffffffffffffffffffffffffffffffffffffffffffffffffffffffff0483118215151615613e7357613e72614045565b5b828202905092915050565b6000613e8982613f1c565b9150613e9483613f1c565b925082821015613ea757613ea6614045565b5b828203905092915050565b6000613ebd82613efc565b9050919050565b60008115159050919050565b60007fffffffff0000000000000000000000000000000000000000000000000000000082169050919050565b600073ffffffffffffffffffffffffffffffffffffffff82169050919050565b6000819050919050565b82818337600083830152505050565b60005b83811015613f53578082015181840152602081019050613f38565b83811115613f62576000848401525b50505050565b60006002820490506001821680613f8057607f821691505b60208210811415613f9457613f936140a3565b5b50919050565b613fa382614101565b810181811067ffffffffffffffff82111715613fc257613fc16140d2565b5b80604052505050565b6000613fd682613f1c565b91507fffffffffffffffffffffffffffffffffffffffffffffffffffffffffffffffff82141561400957614008614045565b5b600182019050919050565b600061401f82613f1c565b915061402a83613f1c565b92508261403a57614039614074565b5b828206905092915050565b7f4e487b7100000000000000000000000000000000000000000000000000000000600052601160045260246000fd5b7f4e487b7100000000000000000000000000000000000000000000000000000000600052601260045260246000fd5b7f4e487b7100000000000000000000000000000000000000000000000000000000600052602260045260246000fd5b7f4e487b7100000000000000000000000000000000000000000000000000000000600052604160045260246000fd5b6000601f19601f8301169050919050565b7f202d2d204e465420233a20000000000000000000000000000000000000000000600082015250565b7f4552433732313a207472616e7366657220746f206e6f6e20455243373231526560008201527f63656976657220696d706c656d656e7465720000000000000000000000000000602082015250565b7f4552433732313a207472616e736665722066726f6d20696e636f72726563742060008201527f6f776e6572000000000000000000000000000000000000000000000000000000602082015250565b7f7d2c207b202274726169745f74797065223a2022536d697468696e67204c657660008201527f656c222c202276616c7565223a20000000000000000000000000000000000000602082015250565b7f4552433732313a20746f6b656e20616c7265616479206d696e74656400000000600082015250565b7f2c20226d61785f76616c7565223a000000000000000000000000000000000000600082015250565b7f4552433732313a207472616e7366657220746f20746865207a65726f2061646460008201527f7265737300000000000000000000000000000000000000000000000000000000602082015250565b7f4552433732313a20617070726f766520746f2063616c6c657200000000000000600082015250565b7f7d2c207b202274726169745f74797065223a202246697368696e67204c65766560008201527f6c222c202276616c7565223a2000000000000000000000000000000000000000602082015250565b7f4552433732313a206f70657261746f7220717565727920666f72206e6f6e657860008201527f697374656e7420746f6b656e0000000000000000000000000000000000000000602082015250565b7f4552433732313a20617070726f76652063616c6c6572206973206e6f74206f7760008201527f6e6572206e6f7220617070726f76656420666f7220616c6c0000000000000000602082015250565b7f4552433732313a2062616c616e636520717565727920666f7220746865207a6560008201527f726f206164647265737300000000000000000000000000000000000000000000602082015250565b7f4552433732313a206f776e657220717565727920666f72206e6f6e657869737460008201527f656e7420746f6b656e0000000000000000000000000000000000000000000000602082015250565b7f4552433732313a206d696e7420746f20746865207a65726f2061646472657373600082015250565b7f7d5d7d0000000000000000000000000000000000000000000000000000000000600082015250565b7f4552433732313a20617070726f76656420717565727920666f72206e6f6e657860008201527f697374656e7420746f6b656e0000000000000000000000000000000000000000602082015250565b7f7d2c207b202274726169745f74797065223a20224d696e696e67204c6576656c60008201527f222c202276616c7565223a200000000000000000000000000000000000000000602082015250565b7f7b226e616d65223a202200000000000000000000000000000000000000000000600082015250565b7f7d2c207b202274726169745f74797065223a2022576f6f6463757474696e672060008201527f4c6576656c222c202276616c7565223a20000000000000000000000000000000602082015250565b7f4552433732313a20617070726f76616c20746f2063757272656e74206f776e6560008201527f7200000000000000000000000000000000000000000000000000000000000000602082015250565b7f646174613a6170706c69636174696f6e2f6a736f6e3b6261736536342c000000600082015250565b7f222c20226465736372697074696f6e223a20225468697320697320616e204e4660008201527f542074686174206c6574732070656f706c6520706c617920696e20657069632060208201527f525047204e46542067616d65222c2022696d616765223a202200000000000000604082015250565b7f4552433732313a207472616e736665722063616c6c6572206973206e6f74206f60008201527f776e6572206e6f7220617070726f766564000000000000000000000000000000602082015250565b7f222c202261747472696275746573223a205b207b202274726169745f7479706560008201527f223a20224865616c746820506f696e7473222c202276616c7565223a20000000602082015250565b7f7d2c207b202274726169745f74797065223a202241747461636b2044616d616760008201527f65222c202276616c7565223a2000000000000000000000000000000000000000602082015250565b6147c881613eb2565b81146147d357600080fd5b50565b6147df81613ec4565b81146147ea57600080fd5b50565b6147f681613ed0565b811461480157600080fd5b50565b61480d81613f1c565b811461481857600080fd5b5056fe4142434445464748494a4b4c4d4e4f505152535455565758595a6162636465666768696a6b6c6d6e6f707172737475767778797a303132333435363738392b2f4d696e746564204e465420772f20746f6b656e496420257320616e6420636861726163746572496e646578202573a2646970667358221220f6f4b86a5d77795adfdf691b98d180f9777fcc5cec3ef962b44c15b27c260fb764736f6c63430008040033446f6e6520696e697469616c697a696e6720257320772f2048502025732c20696d67202573",
  "linkReferences": {},
  "deployedLinkReferences": {}
}